{
  "address": "0xdD7e3823d9178CEFBB486b1c56Fd31EE7DcfF323",
  "abi": [
    {
      "inputs": [],
      "stateMutability": "nonpayable",
      "type": "constructor"
    },
    {
      "anonymous": false,
      "inputs": [
        {
          "indexed": false,
          "internalType": "uint256",
          "name": "min",
          "type": "uint256"
        },
        {
          "indexed": false,
          "internalType": "uint256",
          "name": "max",
          "type": "uint256"
        }
      ],
      "name": "Abroad",
      "type": "event"
    },
    {
      "anonymous": false,
      "inputs": [
        {
          "indexed": false,
          "internalType": "address",
          "name": "previousAdmin",
          "type": "address"
        },
        {
          "indexed": false,
          "internalType": "address",
          "name": "newAdmin",
          "type": "address"
        }
      ],
      "name": "AdminChanged",
      "type": "event"
    },
    {
      "anonymous": false,
      "inputs": [
        {
          "indexed": true,
          "internalType": "address",
          "name": "beacon",
          "type": "address"
        }
      ],
      "name": "BeaconUpgraded",
      "type": "event"
    },
    {
      "anonymous": false,
      "inputs": [
        {
          "indexed": false,
          "internalType": "uint256",
          "name": "fee",
          "type": "uint256"
        },
        {
          "indexed": false,
          "internalType": "uint256",
          "name": "feeDenominator",
          "type": "uint256"
        }
      ],
      "name": "BuyFeeUpdated",
      "type": "event"
    },
    {
      "anonymous": false,
      "inputs": [
        {
          "indexed": false,
          "internalType": "address",
          "name": "collector",
          "type": "address"
        }
      ],
      "name": "CollectorUpdated",
      "type": "event"
    },
    {
      "anonymous": false,
      "inputs": [
        {
          "indexed": false,
          "internalType": "string",
          "name": "label",
          "type": "string"
        },
        {
          "indexed": false,
          "internalType": "uint256",
          "name": "amount",
          "type": "uint256"
        },
        {
          "indexed": false,
          "internalType": "uint256",
          "name": "fee",
          "type": "uint256"
        },
        {
          "indexed": false,
          "internalType": "address",
          "name": "sender",
          "type": "address"
        },
        {
          "indexed": false,
          "internalType": "string",
          "name": "refferal",
          "type": "string"
        }
      ],
      "name": "EventExchange",
      "type": "event"
    },
    {
      "anonymous": false,
      "inputs": [
        {
          "indexed": false,
          "internalType": "uint8",
          "name": "version",
          "type": "uint8"
        }
      ],
      "name": "Initialized",
      "type": "event"
    },
    {
      "anonymous": false,
      "inputs": [
        {
          "indexed": false,
          "internalType": "uint256",
          "name": "nextPayoutTime",
          "type": "uint256"
        }
      ],
      "name": "NextPayoutTime",
      "type": "event"
    },
    {
      "anonymous": false,
      "inputs": [
        {
          "indexed": false,
          "internalType": "address",
          "name": "account",
          "type": "address"
        }
      ],
      "name": "Paused",
      "type": "event"
    },
    {
      "anonymous": false,
      "inputs": [
        {
          "indexed": false,
          "internalType": "uint256",
          "name": "tvlFee",
          "type": "uint256"
        },
        {
          "indexed": false,
          "internalType": "uint256",
          "name": "profitFee",
          "type": "uint256"
        },
        {
          "indexed": false,
          "internalType": "uint256",
          "name": "profit",
          "type": "uint256"
        },
        {
          "indexed": false,
          "internalType": "uint256",
          "name": "loss",
          "type": "uint256"
        }
      ],
      "name": "PayoutEvent",
      "type": "event"
    },
    {
      "anonymous": false,
      "inputs": [
        {
          "indexed": false,
          "internalType": "address",
          "name": "payoutListener",
          "type": "address"
        }
      ],
      "name": "PayoutListenerUpdated",
      "type": "event"
    },
    {
      "anonymous": false,
      "inputs": [
        {
          "indexed": false,
          "internalType": "uint256",
          "name": "nextPayoutTime",
          "type": "uint256"
        },
        {
          "indexed": false,
          "internalType": "uint256",
          "name": "payoutPeriod",
          "type": "uint256"
        },
        {
          "indexed": false,
          "internalType": "uint256",
          "name": "payoutTimeRange",
          "type": "uint256"
        }
      ],
      "name": "PayoutTimesUpdated",
      "type": "event"
    },
    {
      "anonymous": false,
      "inputs": [
        {
          "indexed": false,
          "internalType": "uint256",
          "name": "fee",
          "type": "uint256"
        },
        {
          "indexed": false,
          "internalType": "uint256",
          "name": "feeDenominator",
          "type": "uint256"
        }
      ],
      "name": "ProfitFeeUpdated",
      "type": "event"
    },
    {
      "anonymous": false,
      "inputs": [
        {
          "indexed": false,
          "internalType": "uint256",
          "name": "fee",
          "type": "uint256"
        },
        {
          "indexed": false,
          "internalType": "uint256",
          "name": "feeDenominator",
          "type": "uint256"
        }
      ],
      "name": "RedeemFeeUpdated",
      "type": "event"
    },
    {
      "anonymous": false,
      "inputs": [
        {
          "indexed": true,
          "internalType": "bytes32",
          "name": "role",
          "type": "bytes32"
        },
        {
          "indexed": true,
          "internalType": "bytes32",
          "name": "previousAdminRole",
          "type": "bytes32"
        },
        {
          "indexed": true,
          "internalType": "bytes32",
          "name": "newAdminRole",
          "type": "bytes32"
        }
      ],
      "name": "RoleAdminChanged",
      "type": "event"
    },
    {
      "anonymous": false,
      "inputs": [
        {
          "indexed": true,
          "internalType": "bytes32",
          "name": "role",
          "type": "bytes32"
        },
        {
          "indexed": true,
          "internalType": "address",
          "name": "account",
          "type": "address"
        },
        {
          "indexed": true,
          "internalType": "address",
          "name": "sender",
          "type": "address"
        }
      ],
      "name": "RoleGranted",
      "type": "event"
    },
    {
      "anonymous": false,
      "inputs": [
        {
          "indexed": true,
          "internalType": "bytes32",
          "name": "role",
          "type": "bytes32"
        },
        {
          "indexed": true,
          "internalType": "address",
          "name": "account",
          "type": "address"
        },
        {
          "indexed": true,
          "internalType": "address",
          "name": "sender",
          "type": "address"
        }
      ],
      "name": "RoleRevoked",
      "type": "event"
    },
    {
      "anonymous": false,
      "inputs": [
        {
          "indexed": false,
          "internalType": "address",
          "name": "usdPlus",
          "type": "address"
        },
        {
          "indexed": false,
          "internalType": "address",
          "name": "rebase",
          "type": "address"
        }
      ],
      "name": "TokensUpdated",
      "type": "event"
    },
    {
      "anonymous": false,
      "inputs": [
        {
          "indexed": false,
          "internalType": "uint256",
          "name": "fee",
          "type": "uint256"
        },
        {
          "indexed": false,
          "internalType": "uint256",
          "name": "feeDenominator",
          "type": "uint256"
        }
      ],
      "name": "TvlFeeUpdated",
      "type": "event"
    },
    {
      "anonymous": false,
      "inputs": [
        {
          "indexed": false,
          "internalType": "address",
          "name": "account",
          "type": "address"
        }
      ],
      "name": "Unpaused",
      "type": "event"
    },
    {
      "anonymous": false,
      "inputs": [
        {
          "indexed": true,
          "internalType": "address",
          "name": "implementation",
          "type": "address"
        }
      ],
      "name": "Upgraded",
      "type": "event"
    },
    {
      "inputs": [],
      "name": "DEFAULT_ADMIN_ROLE",
      "outputs": [
        {
          "internalType": "bytes32",
          "name": "",
          "type": "bytes32"
        }
      ],
      "stateMutability": "view",
      "type": "function"
    },
    {
      "inputs": [],
      "name": "PAUSABLE_ROLE",
      "outputs": [
        {
          "internalType": "bytes32",
          "name": "",
          "type": "bytes32"
        }
      ],
      "stateMutability": "view",
      "type": "function"
    },
    {
      "inputs": [],
      "name": "PORTFOLIO_AGENT_ROLE",
      "outputs": [
        {
          "internalType": "bytes32",
          "name": "",
          "type": "bytes32"
        }
      ],
      "stateMutability": "view",
      "type": "function"
    },
    {
      "inputs": [],
      "name": "UPGRADER_ROLE",
      "outputs": [
        {
          "internalType": "bytes32",
          "name": "",
          "type": "bytes32"
        }
      ],
      "stateMutability": "view",
      "type": "function"
    },
    {
      "inputs": [],
      "name": "abroadMax",
      "outputs": [
        {
          "internalType": "uint256",
          "name": "",
          "type": "uint256"
        }
      ],
      "stateMutability": "view",
      "type": "function"
    },
    {
      "inputs": [],
      "name": "abroadMin",
      "outputs": [
        {
          "internalType": "uint256",
          "name": "",
          "type": "uint256"
        }
      ],
      "stateMutability": "view",
      "type": "function"
    },
    {
      "inputs": [],
      "name": "balance",
      "outputs": [],
      "stateMutability": "nonpayable",
      "type": "function"
    },
    {
      "inputs": [],
      "name": "balancePosition",
      "outputs": [],
      "stateMutability": "nonpayable",
      "type": "function"
    },
    {
      "inputs": [
        {
          "internalType": "uint256",
          "name": "_amount",
          "type": "uint256"
        },
        {
          "internalType": "string",
          "name": "referral",
          "type": "string"
        }
      ],
      "name": "buy",
      "outputs": [
        {
          "internalType": "uint256",
          "name": "",
          "type": "uint256"
        }
      ],
      "stateMutability": "nonpayable",
      "type": "function"
    },
    {
      "inputs": [],
      "name": "buyFee",
      "outputs": [
        {
          "internalType": "uint256",
          "name": "",
          "type": "uint256"
        }
      ],
      "stateMutability": "view",
      "type": "function"
    },
    {
      "inputs": [],
      "name": "buyFeeDenominator",
      "outputs": [
        {
          "internalType": "uint256",
          "name": "",
          "type": "uint256"
        }
      ],
      "stateMutability": "view",
      "type": "function"
    },
    {
      "inputs": [],
      "name": "exchange",
      "outputs": [
        {
          "internalType": "contract IExchange",
          "name": "",
          "type": "address"
        }
      ],
      "stateMutability": "view",
      "type": "function"
    },
    {
      "inputs": [
        {
          "internalType": "contract IERC20[]",
          "name": "_tokens",
          "type": "address[]"
        }
      ],
      "name": "exit",
      "outputs": [],
      "stateMutability": "nonpayable",
      "type": "function"
    },
    {
      "inputs": [
        {
          "internalType": "bytes32",
          "name": "role",
          "type": "bytes32"
        }
      ],
      "name": "getRoleAdmin",
      "outputs": [
        {
          "internalType": "bytes32",
          "name": "",
          "type": "bytes32"
        }
      ],
      "stateMutability": "view",
      "type": "function"
    },
    {
      "inputs": [
        {
          "internalType": "bytes32",
          "name": "role",
          "type": "bytes32"
        },
        {
          "internalType": "address",
          "name": "account",
          "type": "address"
        }
      ],
      "name": "grantRole",
      "outputs": [],
      "stateMutability": "nonpayable",
      "type": "function"
    },
    {
      "inputs": [
        {
          "internalType": "bytes32",
          "name": "role",
          "type": "bytes32"
        },
        {
          "internalType": "address",
          "name": "account",
          "type": "address"
        }
      ],
      "name": "hasRole",
      "outputs": [
        {
          "internalType": "bool",
          "name": "",
          "type": "bool"
        }
      ],
      "stateMutability": "view",
      "type": "function"
    },
    {
      "inputs": [],
      "name": "initialize",
      "outputs": [],
      "stateMutability": "nonpayable",
      "type": "function"
    },
    {
      "inputs": [],
      "name": "lastBlockNumber",
      "outputs": [
        {
          "internalType": "uint256",
          "name": "",
          "type": "uint256"
        }
      ],
      "stateMutability": "view",
      "type": "function"
    },
    {
      "inputs": [
        {
          "internalType": "contract IERC20[]",
          "name": "_tokens",
          "type": "address[]"
        }
      ],
      "name": "needExitAmount",
      "outputs": [
        {
          "internalType": "uint256",
          "name": "",
          "type": "uint256"
        }
      ],
      "stateMutability": "view",
      "type": "function"
    },
    {
      "inputs": [],
      "name": "nextPayoutTime",
      "outputs": [
        {
          "internalType": "uint256",
          "name": "",
          "type": "uint256"
        }
      ],
      "stateMutability": "view",
      "type": "function"
    },
    {
      "inputs": [],
      "name": "pause",
      "outputs": [],
      "stateMutability": "nonpayable",
      "type": "function"
    },
    {
      "inputs": [],
      "name": "paused",
      "outputs": [
        {
          "internalType": "bool",
          "name": "",
          "type": "bool"
        }
      ],
      "stateMutability": "view",
      "type": "function"
    },
    {
      "inputs": [],
      "name": "payout",
      "outputs": [],
      "stateMutability": "nonpayable",
      "type": "function"
    },
    {
      "inputs": [],
      "name": "payoutListener",
      "outputs": [
        {
          "internalType": "contract IPayoutListener",
          "name": "",
          "type": "address"
        }
      ],
      "stateMutability": "view",
      "type": "function"
    },
    {
      "inputs": [],
      "name": "payoutPeriod",
      "outputs": [
        {
          "internalType": "uint256",
          "name": "",
          "type": "uint256"
        }
      ],
      "stateMutability": "view",
      "type": "function"
    },
    {
      "inputs": [],
      "name": "payoutTimeRange",
      "outputs": [
        {
          "internalType": "uint256",
          "name": "",
          "type": "uint256"
        }
      ],
      "stateMutability": "view",
      "type": "function"
    },
    {
      "inputs": [],
      "name": "profitFee",
      "outputs": [
        {
          "internalType": "uint256",
          "name": "",
          "type": "uint256"
        }
      ],
      "stateMutability": "view",
      "type": "function"
    },
    {
      "inputs": [],
      "name": "profitFeeDenominator",
      "outputs": [
        {
          "internalType": "uint256",
          "name": "",
          "type": "uint256"
        }
      ],
      "stateMutability": "view",
      "type": "function"
    },
    {
      "inputs": [],
      "name": "proxiableUUID",
      "outputs": [
        {
          "internalType": "bytes32",
          "name": "",
          "type": "bytes32"
        }
      ],
      "stateMutability": "view",
      "type": "function"
    },
    {
      "inputs": [],
      "name": "rebase",
      "outputs": [
        {
          "internalType": "contract IRebaseToken",
          "name": "",
          "type": "address"
        }
      ],
      "stateMutability": "view",
      "type": "function"
    },
    {
      "inputs": [
        {
          "internalType": "uint256",
          "name": "_amount",
          "type": "uint256"
        }
      ],
      "name": "redeem",
      "outputs": [
        {
          "internalType": "uint256",
          "name": "",
          "type": "uint256"
        }
      ],
      "stateMutability": "nonpayable",
      "type": "function"
    },
    {
      "inputs": [],
      "name": "redeemFee",
      "outputs": [
        {
          "internalType": "uint256",
          "name": "",
          "type": "uint256"
        }
      ],
      "stateMutability": "view",
      "type": "function"
    },
    {
      "inputs": [],
      "name": "redeemFeeDenominator",
      "outputs": [
        {
          "internalType": "uint256",
          "name": "",
          "type": "uint256"
        }
      ],
      "stateMutability": "view",
      "type": "function"
    },
    {
      "inputs": [
        {
          "internalType": "bytes32",
          "name": "role",
          "type": "bytes32"
        },
        {
          "internalType": "address",
          "name": "account",
          "type": "address"
        }
      ],
      "name": "renounceRole",
      "outputs": [],
      "stateMutability": "nonpayable",
      "type": "function"
    },
    {
      "inputs": [
        {
          "internalType": "bytes32",
          "name": "role",
          "type": "bytes32"
        },
        {
          "internalType": "address",
          "name": "account",
          "type": "address"
        }
      ],
      "name": "revokeRole",
      "outputs": [],
      "stateMutability": "nonpayable",
      "type": "function"
    },
    {
      "inputs": [
        {
          "internalType": "uint256",
          "name": "_min",
          "type": "uint256"
        },
        {
          "internalType": "uint256",
          "name": "_max",
          "type": "uint256"
        }
      ],
      "name": "setAbroad",
      "outputs": [],
      "stateMutability": "nonpayable",
      "type": "function"
    },
    {
      "inputs": [
        {
          "internalType": "uint256",
          "name": "_fee",
          "type": "uint256"
        },
        {
          "internalType": "uint256",
          "name": "_feeDenominator",
          "type": "uint256"
        }
      ],
      "name": "setBuyFee",
      "outputs": [],
      "stateMutability": "nonpayable",
      "type": "function"
    },
    {
      "inputs": [
        {
          "internalType": "address",
          "name": "_collector",
          "type": "address"
        }
      ],
      "name": "setCollector",
      "outputs": [],
      "stateMutability": "nonpayable",
      "type": "function"
    },
    {
      "inputs": [
        {
          "internalType": "address",
          "name": "_exchanger",
          "type": "address"
        }
      ],
      "name": "setExchanger",
      "outputs": [],
      "stateMutability": "nonpayable",
      "type": "function"
    },
    {
      "inputs": [
        {
          "internalType": "address",
          "name": "_payoutListener",
          "type": "address"
        }
      ],
      "name": "setPayoutListener",
      "outputs": [],
      "stateMutability": "nonpayable",
      "type": "function"
    },
    {
      "inputs": [
        {
          "internalType": "uint256",
          "name": "_nextPayoutTime",
          "type": "uint256"
        },
        {
          "internalType": "uint256",
          "name": "_payoutPeriod",
          "type": "uint256"
        },
        {
          "internalType": "uint256",
          "name": "_payoutTimeRange",
          "type": "uint256"
        }
      ],
      "name": "setPayoutTimes",
      "outputs": [],
      "stateMutability": "nonpayable",
      "type": "function"
    },
    {
      "inputs": [
        {
          "internalType": "uint256",
          "name": "_fee",
          "type": "uint256"
        },
        {
          "internalType": "uint256",
          "name": "_feeDenominator",
          "type": "uint256"
        }
      ],
      "name": "setProfitFee",
      "outputs": [],
      "stateMutability": "nonpayable",
      "type": "function"
    },
    {
      "inputs": [
        {
          "internalType": "uint256",
          "name": "_fee",
          "type": "uint256"
        },
        {
          "internalType": "uint256",
          "name": "_feeDenominator",
          "type": "uint256"
        }
      ],
      "name": "setRedeemFee",
      "outputs": [],
      "stateMutability": "nonpayable",
      "type": "function"
    },
    {
      "inputs": [
        {
          "internalType": "address",
          "name": "_strategy",
          "type": "address"
        }
      ],
      "name": "setStrategy",
      "outputs": [],
      "stateMutability": "nonpayable",
      "type": "function"
    },
    {
      "inputs": [
        {
          "internalType": "address",
          "name": "_usdPlus",
          "type": "address"
        },
        {
          "internalType": "address",
          "name": "_rebase",
          "type": "address"
        }
      ],
      "name": "setTokens",
      "outputs": [],
      "stateMutability": "nonpayable",
      "type": "function"
    },
    {
      "inputs": [
        {
          "internalType": "uint256",
          "name": "_fee",
          "type": "uint256"
        },
        {
          "internalType": "uint256",
          "name": "_feeDenominator",
          "type": "uint256"
        }
      ],
      "name": "setTvlFee",
      "outputs": [],
      "stateMutability": "nonpayable",
      "type": "function"
    },
    {
      "inputs": [],
      "name": "strategy",
      "outputs": [
        {
          "internalType": "contract IHedgeStrategy",
          "name": "",
          "type": "address"
        }
      ],
      "stateMutability": "view",
      "type": "function"
    },
    {
      "inputs": [
        {
          "internalType": "bytes4",
          "name": "interfaceId",
          "type": "bytes4"
        }
      ],
      "name": "supportsInterface",
      "outputs": [
        {
          "internalType": "bool",
          "name": "",
          "type": "bool"
        }
      ],
      "stateMutability": "view",
      "type": "function"
    },
    {
      "inputs": [],
      "name": "tvlFee",
      "outputs": [
        {
          "internalType": "uint256",
          "name": "",
          "type": "uint256"
        }
      ],
      "stateMutability": "view",
      "type": "function"
    },
    {
      "inputs": [],
      "name": "tvlFeeDenominator",
      "outputs": [
        {
          "internalType": "uint256",
          "name": "",
          "type": "uint256"
        }
      ],
      "stateMutability": "view",
      "type": "function"
    },
    {
      "inputs": [],
      "name": "unpause",
      "outputs": [],
      "stateMutability": "nonpayable",
      "type": "function"
    },
    {
      "inputs": [
        {
          "internalType": "address",
          "name": "newImplementation",
          "type": "address"
        }
      ],
      "name": "upgradeTo",
      "outputs": [],
      "stateMutability": "nonpayable",
      "type": "function"
    },
    {
      "inputs": [
        {
          "internalType": "address",
          "name": "newImplementation",
          "type": "address"
        },
        {
          "internalType": "bytes",
          "name": "data",
          "type": "bytes"
        }
      ],
      "name": "upgradeToAndCall",
      "outputs": [],
      "stateMutability": "payable",
      "type": "function"
    },
    {
      "inputs": [],
      "name": "usdPlus",
      "outputs": [
        {
          "internalType": "contract IUsdPlusToken",
          "name": "",
          "type": "address"
        }
      ],
      "stateMutability": "view",
      "type": "function"
    },
    {
      "inputs": [],
      "name": "usdc",
      "outputs": [
        {
          "internalType": "contract IERC20",
          "name": "",
          "type": "address"
        }
      ],
      "stateMutability": "view",
      "type": "function"
    }
  ],
  "numDeployments": 1,
  "solcInputHash": "bc5bc460ed468e0ed7adb91c4c152509",
  "bytecode": "0x60a06040523060601b6080523480156200001857600080fd5b50600054610100900460ff16158080156200003a5750600054600160ff909116105b806200006a575062000057306200014460201b6200305d1760201c565b1580156200006a575060005460ff166001145b620000d25760405162461bcd60e51b815260206004820152602e60248201527f496e697469616c697a61626c653a20636f6e747261637420697320616c72656160448201526d191e481a5b9a5d1a585b1a5e995960921b606482015260840160405180910390fd5b6000805460ff191660011790558015620000f6576000805461ff0019166101001790555b80156200013d576000805461ff0019169055604051600181527f7f26b83ff96e1f2b6a682f133852f6798a09c465da95921460cefb38474024989060200160405180910390a15b5062000153565b6001600160a01b03163b151590565b60805160601c614a196200018e60003960008181610b2a01528181610b6a01528181610deb01528181610e2b0152610eba0152614a196000f3fe6080604052600436106103505760003560e01c80639cca16d8116101c6578063cecbbc07116100f7578063ea96f8ff11610095578063f72c0d8b1161006f578063f72c0d8b1461093c578063f90766a614610970578063fb0ecfa414610987578063fb5b82d0146109a757600080fd5b8063ea96f8ff146108dc578063f3869e8d146108fc578063f6670bd61461091c57600080fd5b8063d7d8b7a7116100d1578063d7d8b7a714610865578063da909b091461087c578063db006a751461089c578063e84d4fcb146108bc57600080fd5b8063cecbbc071461080d578063d2f7265a14610824578063d547741f1461084557600080fd5b8063b69ef8a811610164578063bc890b7e1161013e578063bc890b7e146107a8578063c12e90e9146107bf578063cbc7854e146107d6578063ce1aa76b146107f657600080fd5b8063b69ef8a814610753578063b7dc3b1814610768578063bc56bebf1461078857600080fd5b8063a8c62e76116101a0578063a8c62e76146106da578063af14052c146106fb578063b200deda1461071c578063b262bc981461073357600080fd5b80639cca16d814610685578063a217fddf146106a5578063a4bb42a1146106ba57600080fd5b80634e2e992d116102a057806363bd1d4a1161023e5780638129fc1c116102185780638129fc1c146106245780638456cb591461063957806391d148541461064e578063965fa21e1461066e57600080fd5b806363bd1d4a146105e15780636d8ebaa8146105f65780637c5261d81461060d57600080fd5b806352d1902d1161027a57806352d1902d1461057b5780635c975abb146105905780635dbd733a146105a857806362f09895146105ca57600080fd5b80634e2e992d146105325780634f1ef28614610547578063514e460a1461055a57600080fd5b80632f2ff15d1161030d5780633659cfe6116102e75780633659cfe6146104c55780633e413bee146104e55780633f4ba83a14610506578063470624021461051b57600080fd5b80632f2ff15d1461046357806333a100ca1461048557806336568abe146104a557600080fd5b806301ffc9a7146103555780630ffd778e1461038a578063182531f8146103cc578063248a9ca3146104055780632552317c146104355780632b78fe781461044c575b600080fd5b34801561036157600080fd5b506103756103703660046142d9565b6109c7565b60405190151581526020015b60405180910390f35b34801561039657600080fd5b506103be7f09b6fca8f5f3ab2900d9586d1d15872611c1bd42b268b973ad886d4f2646b56081565b604051908152602001610381565b3480156103d857600080fd5b50610141546103ed906001600160a01b031681565b6040516001600160a01b039091168152602001610381565b34801561041157600080fd5b506103be610420366004614282565b60009081526065602052604090206001015490565b34801561044157600080fd5b506103be61013e5481565b34801561045857600080fd5b506103be61013f5481565b34801561046f57600080fd5b5061048361047e3660046142b4565b6109fe565b005b34801561049157600080fd5b506104836104a03660046140b4565b610a28565b3480156104b157600080fd5b506104836104c03660046142b4565b610aa1565b3480156104d157600080fd5b506104836104e03660046140b4565b610b1f565b3480156104f157600080fd5b50610130546103ed906001600160a01b031681565b34801561051257600080fd5b50610483610bff565b34801561052757600080fd5b506103be6101335481565b34801561053e57600080fd5b50610483610c3d565b610483610555366004614127565b610de0565b34801561056657600080fd5b5061012f546103ed906001600160a01b031681565b34801561058757600080fd5b506103be610ead565b34801561059c57600080fd5b5060fb5460ff16610375565b3480156105b457600080fd5b506103be60008051602061497d83398151915281565b3480156105d657600080fd5b506103be6101345481565b3480156105ed57600080fd5b50610483610f60565b34801561060257600080fd5b506103be61013b5481565b34801561061957600080fd5b506103be6101405481565b34801561063057600080fd5b50610483610f70565b34801561064557600080fd5b5061048361114f565b34801561065a57600080fd5b506103756106693660046142b4565b61118b565b34801561067a57600080fd5b506103be6101355481565b34801561069157600080fd5b506104836106a036600461437f565b6111b6565b3480156106b157600080fd5b506103be600081565b3480156106c657600080fd5b506104836106d53660046140b4565b611227565b3480156106e657600080fd5b5061012e546103ed906001600160a01b031681565b34801561070757600080fd5b50610131546103ed906001600160a01b031681565b34801561072857600080fd5b506103be6101375481565b34801561073f57600080fd5b5061048361074e36600461437f565b61129d565b34801561075f57600080fd5b5061048361132c565b34801561077457600080fd5b506103be610783366004614303565b6113d3565b34801561079457600080fd5b506104836107a336600461437f565b611880565b3480156107b457600080fd5b506103be6101385481565b3480156107cb57600080fd5b506103be6101365481565b3480156107e257600080fd5b506104836107f13660046140ee565b611906565b34801561080257600080fd5b506103be61013c5481565b34801561081957600080fd5b506103be61013d5481565b34801561083057600080fd5b5061012d546103ed906001600160a01b031681565b34801561085157600080fd5b506104836108603660046142b4565b6119e2565b34801561087157600080fd5b506103be61013a5481565b34801561088857600080fd5b506104836108973660046140b4565b611a07565b3480156108a857600080fd5b506103be6108b7366004614282565b611a77565b3480156108c857600080fd5b506103be6108d73660046141eb565b611f76565b3480156108e857600080fd5b506104836108f736600461437f565b6122b5565b34801561090857600080fd5b506104836109173660046143a1565b612344565b34801561092857600080fd5b506104836109373660046141eb565b6124c8565b34801561094857600080fd5b506103be7f189ab7a9244df0848122154315af71fe140f3db0fe014031783b0946b8c9d2e381565b34801561097c57600080fd5b506103be6101395481565b34801561099357600080fd5b506104836109a236600461437f565b612f3b565b3480156109b357600080fd5b506104836109c23660046140b4565b612fc1565b60006001600160e01b03198216637965db0b60e01b14806109f857506301ffc9a760e01b6001600160e01b03198316145b92915050565b600082815260656020526040902060010154610a198161306c565b610a238383613076565b505050565b610a3360003361118b565b610a585760405162461bcd60e51b8152600401610a4f906145f8565b60405180910390fd5b6001600160a01b038116610a7e5760405162461bcd60e51b8152600401610a4f9061465d565b61012e80546001600160a01b0319166001600160a01b0392909216919091179055565b6001600160a01b0381163314610b115760405162461bcd60e51b815260206004820152602f60248201527f416363657373436f6e74726f6c3a2063616e206f6e6c792072656e6f756e636560448201526e103937b632b9903337b91039b2b63360891b6064820152608401610a4f565b610b1b82826130fc565b5050565b306001600160a01b037f0000000000000000000000000000000000000000000000000000000000000000161415610b685760405162461bcd60e51b8152600401610a4f906144b4565b7f00000000000000000000000000000000000000000000000000000000000000006001600160a01b0316610bb160008051602061499d833981519152546001600160a01b031690565b6001600160a01b031614610bd75760405162461bcd60e51b8152600401610a4f90614500565b610be081613163565b60408051600080825260208201909252610bfc9183919061318d565b50565b610c1760008051602061497d8339815191523361118b565b610c335760405162461bcd60e51b8152600401610a4f90614626565b610c3b613307565b565b6000610cd061012e60009054906101000a90046001600160a01b03166001600160a01b031663a3673b386040518163ffffffff1660e01b815260040160206040518083038186803b158015610c9157600080fd5b505afa158015610ca5573d6000803e3d6000fd5b505050506040513d601f19601f82011682018060405250810190610cc9919061429b565b600f613359565b905061012e60009054906101000a90046001600160a01b03166001600160a01b0316634e2e992d6040518163ffffffff1660e01b8152600401600060405180830381600087803b158015610d2357600080fd5b505af1158015610d37573d6000803e3d6000fd5b505050508061012e60009054906101000a90046001600160a01b03166001600160a01b031663a3673b386040518163ffffffff1660e01b815260040160206040518083038186803b158015610d8b57600080fd5b505afa158015610d9f573d6000803e3d6000fd5b505050506040513d601f19601f82011682018060405250810190610dc3919061429b565b11610bfc5760405162461bcd60e51b8152600401610a4f906146df565b306001600160a01b037f0000000000000000000000000000000000000000000000000000000000000000161415610e295760405162461bcd60e51b8152600401610a4f906144b4565b7f00000000000000000000000000000000000000000000000000000000000000006001600160a01b0316610e7260008051602061499d833981519152546001600160a01b031690565b6001600160a01b031614610e985760405162461bcd60e51b8152600401610a4f90614500565b610ea182613163565b610b1b8282600161318d565b6000306001600160a01b037f00000000000000000000000000000000000000000000000000000000000000001614610f4d5760405162461bcd60e51b815260206004820152603860248201527f555550535570677261646561626c653a206d757374206e6f742062652063616c60448201527f6c6564207468726f7567682064656c656761746563616c6c00000000000000006064820152608401610a4f565b5060008051602061499d83398151915290565b610f6861337c565b610c3b6133c2565b600054610100900460ff1615808015610f905750600054600160ff909116105b80610faa5750303b158015610faa575060005460ff166001145b61100d5760405162461bcd60e51b815260206004820152602e60248201527f496e697469616c697a61626c653a20636f6e747261637420697320616c72656160448201526d191e481a5b9a5d1a585b1a5e995960921b6064820152608401610a4f565b6000805460ff191660011790558015611030576000805461ff0019166101001790555b611038613a5e565b611040613a85565b611048613a5e565b611053600033613076565b61107d7f189ab7a9244df0848122154315af71fe140f3db0fe014031783b0946b8c9d2e333613076565b6110a77f09b6fca8f5f3ab2900d9586d1d15872611c1bd42b268b973ad886d4f2646b56033613076565b6028610133819055620186a0610134819055610135919091556101368190556103e8610137556101388190556127106101395561013a55636195978061013b556201518061013c5561038461013d55620f43d061013f55620f45f6610140558015610bfc576000805461ff0019169055604051600181527f7f26b83ff96e1f2b6a682f133852f6798a09c465da95921460cefb3847402498906020015b60405180910390a150565b61116760008051602061497d8339815191523361118b565b6111835760405162461bcd60e51b8152600401610a4f90614626565b610c3b613ab4565b60009182526065602090815260408084206001600160a01b0393909316845291905290205460ff1690565b6111c160003361118b565b6111dd5760405162461bcd60e51b8152600401610a4f906145f8565b61013f82905561014081905560408051838152602081018390527f164d29c07aa1410447214bda4ceeae682b23796531b6b4d1d674f72953aa7f6591015b60405180910390a15050565b61123260003361118b565b61124e5760405162461bcd60e51b8152600401610a4f906145f8565b61014180546001600160a01b0319166001600160a01b0383169081179091556040519081527fc388495b5a8a549e1885691ef3b8b1cb2b97a91365bbc9f26f488d28caaab84d90602001611144565b6112a860003361118b565b6112c45760405162461bcd60e51b8152600401610a4f906145f8565b806112e15760405162461bcd60e51b8152600401610a4f9061470f565b61013982905561013a81905561013554610136546040517f380b562b665401553181201ec2005b59fbf2667bc4140e4f80fe613f90b33bcc9261121b92908252602082015260400190565b600061138061012e60009054906101000a90046001600160a01b03166001600160a01b031663a3673b386040518163ffffffff1660e01b815260040160206040518083038186803b158015610c9157600080fd5b905061012e60009054906101000a90046001600160a01b03166001600160a01b031663b69ef8a86040518163ffffffff1660e01b8152600401600060405180830381600087803b158015610d2357600080fd5b60006113dd61337c565b4361013e54106114245760405162461bcd60e51b81526020600482015260126024820152714f6e6c79206f6e636520696e20626c6f636b60701b6044820152606401610a4f565b4361013e5561012f546040516370a0823160e01b81523360048201526000916001600160a01b0316906370a082319060240160206040518083038186803b15801561146e57600080fd5b505afa158015611482573d6000803e3d6000fd5b505050506040513d601f19601f820116820180604052508101906114a6919061429b565b9050848110156114f85760405162461bcd60e51b815260206004820152601860248201527f4e6f7420656e6f75676820746f6b656e7320746f2062757900000000000000006044820152606401610a4f565b60006115968661012e60009054906101000a90046001600160a01b03166001600160a01b031663a3673b386040518163ffffffff1660e01b815260040160206040518083038186803b15801561154d57600080fd5b505afa158015611561573d6000803e3d6000fd5b505050506040513d601f19601f82011682018060405250810190611585919061429b565b61158f9190614746565b6004613359565b61012f5461012e546040516323b872dd60e01b81523360048201526001600160a01b039182166024820152604481018a905292935016906323b872dd90606401602060405180830381600087803b1580156115f057600080fd5b505af1158015611604573d6000803e3d6000fd5b505050506040513d601f19601f820116820180604052508101906116289190614260565b5061012e5460405163534a7e1d60e11b8152600481018890526001600160a01b039091169063a694fc3a90602401600060405180830381600087803b15801561167057600080fd5b505af1158015611684573d6000803e3d6000fd5b505050508061012e60009054906101000a90046001600160a01b03166001600160a01b031663a3673b386040518163ffffffff1660e01b815260040160206040518083038186803b1580156116d857600080fd5b505afa1580156116ec573d6000803e3d6000fd5b505050506040513d601f19601f82011682018060405250810190611710919061429b565b1161172d5760405162461bcd60e51b8152600401610a4f906146df565b6000610134546101335488611742919061486e565b61174c919061475e565b9050600061175a828961488d565b610131546040516340c10f1960e01b8152336004820152602481018390529192506001600160a01b0316906340c10f1990604401600060405180830381600087803b1580156117a857600080fd5b505af11580156117bc573d6000803e3d6000fd5b5050505060008211156118345761013154610132546040516340c10f1960e01b81526001600160a01b039182166004820152602481018590529116906340c10f1990604401600060405180830381600087803b15801561181b57600080fd5b505af115801561182f573d6000803e3d6000fd5b505050505b7f5215f03b099407f64e52d76ef2416a46b32915d572e87db5d40282538ed364848183338a8a60405161186b95949392919061454c565b60405180910390a193505050505b9392505050565b61188b60003361118b565b6118a75760405162461bcd60e51b8152600401610a4f906145f8565b806118c45760405162461bcd60e51b8152600401610a4f9061470f565b61013582905561013681905560408051838152602081018390527f9fb7dbd1f2c1bd33dd68f78a38f699ff1ca487d7a7211ecc7df31d919f52043d910161121b565b61191160003361118b565b61192d5760405162461bcd60e51b8152600401610a4f906145f8565b6001600160a01b0382166119535760405162461bcd60e51b8152600401610a4f9061465d565b6001600160a01b0381166119795760405162461bcd60e51b8152600401610a4f9061465d565b61012f80546001600160a01b038481166001600160a01b0319928316811790935561013180549185169190921681179091556040805192835260208301919091527fdcc6331013de89f8c595d5328f0a724194f113cb6f8f2a707b3dff6de13f0d17910161121b565b6000828152606560205260409020600101546119fd8161306c565b610a2383836130fc565b611a1260003361118b565b611a2e5760405162461bcd60e51b8152600401610a4f906145f8565b6001600160a01b038116611a545760405162461bcd60e51b8152600401610a4f9061465d565b61012d80546001600160a01b0319166001600160a01b0392909216919091179055565b6000611a8161337c565b4361013e5410611ac85760405162461bcd60e51b81526020600482015260126024820152714f6e6c79206f6e636520696e20626c6f636b60701b6044820152606401610a4f565b4361013e55610136546101355460009190611ae3908561486e565b611aed919061475e565b90506000611afb828561488d565b90506000611b948261012e60009054906101000a90046001600160a01b03166001600160a01b031663a3673b386040518163ffffffff1660e01b815260040160206040518083038186803b158015611b5257600080fd5b505afa158015611b66573d6000803e3d6000fd5b505050506040513d601f19601f82011682018060405250810190611b8a919061429b565b61158f919061488d565b61012e546040516341c0f0c160e11b8152600481018590523060248201529192506000916001600160a01b0390911690638381e18290604401602060405180830381600087803b158015611be757600080fd5b505af1158015611bfb573d6000803e3d6000fd5b505050506040513d601f19601f82011682018060405250810190611c1f919061429b565b90508161012e60009054906101000a90046001600160a01b03166001600160a01b031663a3673b386040518163ffffffff1660e01b815260040160206040518083038186803b158015611c7157600080fd5b505afa158015611c85573d6000803e3d6000fd5b505050506040513d601f19601f82011682018060405250810190611ca9919061429b565b11611cc65760405162461bcd60e51b8152600401610a4f906146df565b61013154604051632770a7eb60e21b8152336004820152602481018890526001600160a01b0390911690639dc29fac90604401600060405180830381600087803b158015611d1357600080fd5b505af1158015611d27573d6000803e3d6000fd5b505050506000841115611d9f5761013154610132546040516340c10f1960e01b81526001600160a01b039182166004820152602481018790529116906340c10f1990604401600060405180830381600087803b158015611d8657600080fd5b505af1158015611d9a573d6000803e3d6000fd5b505050505b61012f546040516370a0823160e01b815230600482015282916001600160a01b0316906370a082319060240160206040518083038186803b158015611de357600080fd5b505afa158015611df7573d6000803e3d6000fd5b505050506040513d601f19601f82011682018060405250810190611e1b919061429b565b1015611e785760405162461bcd60e51b815260206004820152602660248201527f4e6f7420656e6f75676820666f72207472616e7366657220756e7374616b6564604482015265105b5bdd5b9d60d21b6064820152608401610a4f565b61012f5460405163a9059cbb60e01b8152336004820152602481018590526001600160a01b039091169063a9059cbb90604401602060405180830381600087803b158015611ec557600080fd5b505af1158015611ed9573d6000803e3d6000fd5b505050506040513d601f19601f82011682018060405250810190611efd9190614260565b506040805160a08082526006908201526572656465656d60d01b60c08201526020810185905290810185905233606082015260e0608082018190526000908201527f5215f03b099407f64e52d76ef2416a46b32915d572e87db5d40282538ed36484906101000160405180910390a15090949350505050565b600080805b61013160009054906101000a90046001600160a01b03166001600160a01b0316623660886040518163ffffffff1660e01b815260040160206040518083038186803b158015611fc957600080fd5b505afa158015611fdd573d6000803e3d6000fd5b505050506040513d601f19601f82011682018060405250810190612001919061429b565b8110156120a35761013154604051636736fbdf60e11b8152600481018390526001600160a01b039091169063ce6df7be9060240160206040518083038186803b15801561204d57600080fd5b505afa158015612061573d6000803e3d6000fd5b505050506040513d601f19601f82011682018060405250810190612085919061429b565b61208f9083614746565b915061209c600182614746565b9050611f7b565b506000805b8481101561228e5760008686838181106120c4576120c461493b565b90506020020160208101906120d991906140b4565b90506000816001600160a01b031663313ce5676040518163ffffffff1660e01b815260040160206040518083038186803b15801561211657600080fd5b505afa15801561212a573d6000803e3d6000fd5b505050506040513d601f19601f8201168201806040525081019061214e91906143cd565b905061013160009054906101000a90046001600160a01b03166001600160a01b031663313ce5676040518163ffffffff1660e01b815260040160206040518083038186803b15801561219f57600080fd5b505afa1580156121b3573d6000803e3d6000fd5b505050506040513d601f19601f820116820180604052508101906121d791906143cd565b6121e190826148a4565b6121ec90600a6147c3565b6040516370a0823160e01b81523060048201526001600160a01b038416906370a082319060240160206040518083038186803b15801561222b57600080fd5b505afa15801561223f573d6000803e3d6000fd5b505050506040513d601f19601f82011682018060405250810190612263919061429b565b61226d919061475e565b6122779085614746565b9350505080806122869061490a565b9150506120a8565b50808211156122aa576122a1818361488d565b925050506109f8565b6000925050506109f8565b6122c060003361118b565b6122dc5760405162461bcd60e51b8152600401610a4f906145f8565b806122f95760405162461bcd60e51b8152600401610a4f9061470f565b61013782905561013881905561013554610136546040517fc68fc690a0e94f03420df48c2c267dae330c1ff6a39f32a1f90d8baf9e67451e9261121b92908252602082015260400190565b61234f60003361118b565b61236b5760405162461bcd60e51b8152600401610a4f906145f8565b826123b85760405162461bcd60e51b815260206004820181905260248201527f5a65726f205f6e6578745061796f757454696d65206e6f7420616c6c6f7765646044820152606401610a4f565b816124055760405162461bcd60e51b815260206004820152601e60248201527f5a65726f205f7061796f7574506572696f64206e6f7420616c6c6f77656400006044820152606401610a4f565b8083116124705760405162461bcd60e51b815260206004820152603360248201527f5f6e6578745061796f757454696d652073686f7564206265206d6f7265207468604482015272616e205f7061796f757454696d6552616e676560681b6064820152608401610a4f565b61013b83905561013c82905561013d81905560408051848152602081018490529081018290527f182705f356ea3bbbd12c7b4761586a554d391a7703345f81166bbe3f946444999060600160405180910390a1505050565b6124e060008051602061497d8339815191523361118b565b6124fc5760405162461bcd60e51b8152600401610a4f90614626565b6000805b61013160009054906101000a90046001600160a01b03166001600160a01b0316623660886040518163ffffffff1660e01b815260040160206040518083038186803b15801561254e57600080fd5b505afa158015612562573d6000803e3d6000fd5b505050506040513d601f19601f82011682018060405250810190612586919061429b565b8110156126285761013154604051636736fbdf60e11b8152600481018390526001600160a01b039091169063ce6df7be9060240160206040518083038186803b1580156125d257600080fd5b505afa1580156125e6573d6000803e3d6000fd5b505050506040513d601f19601f8201168201806040525081019061260a919061429b565b6126149083614746565b9150612621600182614746565b9050612500565b5060006126358484611f76565b11156126835760405162461bcd60e51b815260206004820152601a60248201527f4e6f7420656e6f75676820617373657420666f722065786973740000000000006044820152606401610a4f565b60008267ffffffffffffffff81111561269e5761269e614951565b6040519080825280602002602001820160405280156126c7578160200160208202803683370190505b50905060005b838110156127a4578484828181106126e7576126e761493b565b90506020020160208101906126fc91906140b4565b6040516370a0823160e01b81523060048201526001600160a01b0391909116906370a082319060240160206040518083038186803b15801561273d57600080fd5b505afa158015612751573d6000803e3d6000fd5b505050506040513d601f19601f82011682018060405250810190612775919061429b565b8282815181106127875761278761493b565b60209081029190910101528061279c8161490a565b9150506126cd565b5061013154604080516206cc1160e31b815290516000926001600160a01b03169162366088916004808301926020929190829003018186803b1580156127e957600080fd5b505afa1580156127fd573d6000803e3d6000fd5b505050506040513d601f19601f82011682018060405250810190612821919061429b565b67ffffffffffffffff81111561283957612839614951565b604051908082528060200260200182016040528015612862578160200160208202803683370190505b509050600061013160009054906101000a90046001600160a01b03166001600160a01b0316623660886040518163ffffffff1660e01b815260040160206040518083038186803b1580156128b557600080fd5b505afa1580156128c9573d6000803e3d6000fd5b505050506040513d601f19601f820116820180604052508101906128ed919061429b565b67ffffffffffffffff81111561290557612905614951565b60405190808252806020026020018201604052801561292e578160200160208202803683370190505b50905060005b61013160009054906101000a90046001600160a01b03166001600160a01b0316623660886040518163ffffffff1660e01b815260040160206040518083038186803b15801561298257600080fd5b505afa158015612996573d6000803e3d6000fd5b505050506040513d601f19601f820116820180604052508101906129ba919061429b565b811015612d8f5760005b86811015612bc75760008888838181106129e0576129e061493b565b90506020020160208101906129f591906140b4565b61013154604051636736fbdf60e11b81526004810186905291925060009189916001600160a01b03169063ce6df7be9060240160206040518083038186803b158015612a4057600080fd5b505afa158015612a54573d6000803e3d6000fd5b505050506040513d601f19601f82011682018060405250810190612a78919061429b565b888581518110612a8a57612a8a61493b565b6020026020010151612a9c919061486e565b612aa6919061475e565b61013154604051632435987960e01b8152600481018790529192506001600160a01b038481169263a9059cbb92919091169063243598799060240160206040518083038186803b158015612af957600080fd5b505afa158015612b0d573d6000803e3d6000fd5b505050506040513d601f19601f82011682018060405250810190612b3191906140d1565b6040516001600160e01b031960e084901b1681526001600160a01b03909116600482015260248101849052604401602060405180830381600087803b158015612b7957600080fd5b505af1158015612b8d573d6000803e3d6000fd5b505050506040513d601f19601f82011682018060405250810190612bb19190614260565b5050508080612bbf9061490a565b9150506129c4565b5061013154604051632435987960e01b8152600481018390526001600160a01b039091169063243598799060240160206040518083038186803b158015612c0d57600080fd5b505afa158015612c21573d6000803e3d6000fd5b505050506040513d601f19601f82011682018060405250810190612c4591906140d1565b838281518110612c5757612c5761493b565b6001600160a01b03928316602091820292909201015261013154604051632435987960e01b8152600481018490529116906370a0823190829063243598799060240160206040518083038186803b158015612cb157600080fd5b505afa158015612cc5573d6000803e3d6000fd5b505050506040513d601f19601f82011682018060405250810190612ce991906140d1565b6040516001600160e01b031960e084901b1681526001600160a01b03909116600482015260240160206040518083038186803b158015612d2857600080fd5b505afa158015612d3c573d6000803e3d6000fd5b505050506040513d601f19601f82011682018060405250810190612d60919061429b565b828281518110612d7257612d7261493b565b602090810291909101015280612d878161490a565b915050612934565b5060005b8251811015612e5e576101315483516001600160a01b0390911690639dc29fac90859084908110612dc657612dc661493b565b6020026020010151848481518110612de057612de061493b565b60200260200101516040518363ffffffff1660e01b8152600401612e199291906001600160a01b03929092168252602082015260400190565b600060405180830381600087803b158015612e3357600080fd5b505af1158015612e47573d6000803e3d6000fd5b505050508080612e569061490a565b915050612d93565b5061013160009054906101000a90046001600160a01b03166001600160a01b03166318160ddd6040518163ffffffff1660e01b815260040160206040518083038186803b158015612eae57600080fd5b505afa158015612ec2573d6000803e3d6000fd5b505050506040513d601f19601f82011682018060405250810190612ee6919061429b565b15612f335760405162461bcd60e51b815260206004820152601b60248201527f7265626173652e746f74616c537570706c79206e6f74207a65726f00000000006044820152606401610a4f565b505050505050565b612f4660003361118b565b612f625760405162461bcd60e51b8152600401610a4f906145f8565b80612f7f5760405162461bcd60e51b8152600401610a4f9061470f565b61013382905561013481905560408051838152602081018390527f28e297c7c282931a994191b735b01eaf17558295f761512a7047f4e1b8dc3b0b910161121b565b612fcc60003361118b565b612fe85760405162461bcd60e51b8152600401610a4f906145f8565b6001600160a01b03811661300e5760405162461bcd60e51b8152600401610a4f9061465d565b61013280546001600160a01b0319166001600160a01b0383169081179091556040519081527f14308adaec1375a4db1882d93c05b25b2a86d3d0dd683f8f94a3a55190d1d35b90602001611144565b6001600160a01b03163b151590565b610bfc8133613af1565b613080828261118b565b610b1b5760008281526065602090815260408083206001600160a01b03851684529091529020805460ff191660011790556130b83390565b6001600160a01b0316816001600160a01b0316837f2f8788117e7eff1d82e926ec794901d17c78024a50270940304540a733656f0d60405160405180910390a45050565b613106828261118b565b15610b1b5760008281526065602090815260408083206001600160a01b0385168085529252808320805460ff1916905551339285917ff6391f5c32d9c69d2a47ea670b442974b53935d1edc7fd64eb21e047a839171b9190a45050565b7f189ab7a9244df0848122154315af71fe140f3db0fe014031783b0946b8c9d2e3610b1b8161306c565b7f4910fdfa16fed3260ed0e7147f7cc6da11a60208b5b9406d12a635614ffd91435460ff16156131c057610a2383613b55565b826001600160a01b03166352d1902d6040518163ffffffff1660e01b815260040160206040518083038186803b1580156131f957600080fd5b505afa925050508015613229575060408051601f3d908101601f191682019092526132269181019061429b565b60015b61328c5760405162461bcd60e51b815260206004820152602e60248201527f45524331393637557067726164653a206e657720696d706c656d656e7461746960448201526d6f6e206973206e6f74205555505360901b6064820152608401610a4f565b60008051602061499d83398151915281146132fb5760405162461bcd60e51b815260206004820152602960248201527f45524331393637557067726164653a20756e737570706f727465642070726f786044820152681a58589b195555525160ba1b6064820152608401610a4f565b50610a23838383613bf1565b61330f613c1c565b60fb805460ff191690557f5db9ee0a495bf2e6ff9c91a7834c1ba4fdd244a5e8aa4e537bd38aeae4b073aa335b6040516001600160a01b03909116815260200160405180910390a1565b6000612710613368838261488d565b613372908561486e565b611879919061475e565b60fb5460ff1615610c3b5760405162461bcd60e51b815260206004820152601060248201526f14185d5cd8589b194e881c185d5cd95960821b6044820152606401610a4f565b61013b5461013d546133d49042614746565b10156133dc57565b61012e54604051633bd73ee360e21b81526001600160a01b03909116600482018190529063ef5cfb8c90602401602060405180830381600087803b15801561342357600080fd5b505af1158015613437573d6000803e3d6000fd5b505050506040513d601f19601f8201168201806040525081019061345b919061429b565b5061346461132c565b61013154604080516318160ddd60e01b815290516000926001600160a01b0316916318160ddd916004808301926020929190829003018186803b1580156134aa57600080fd5b505afa1580156134be573d6000803e3d6000fd5b505050506040513d601f19601f820116820180604052508101906134e2919061429b565b9050600061012e60009054906101000a90046001600160a01b03166001600160a01b031663a3673b386040518163ffffffff1660e01b815260040160206040518083038186803b15801561353557600080fd5b505afa158015613549573d6000803e3d6000fd5b505050506040513d601f19601f8201168201806040525081019061356d919061429b565b905060008060008060008686111561360c57613589878761488d565b91506101385461016d61013754846103e86135a4919061486e565b6135ae919061486e565b6135b8919061475e565b6135c2919061475e565b93506135ce848361488d565b915061013a5461013954836135e3919061486e565b6135ed919061475e565b92506135f9838361488d565b91506136058385614746565b9450613619565b613616868861488d565b90505b613623858761488d565b9550600061363087613c65565b905060006136c561013160009054906101000a90046001600160a01b03166001600160a01b031663b1bf962d6040518163ffffffff1660e01b815260040160206040518083038186803b15801561368657600080fd5b505afa15801561369a573d6000803e3d6000fd5b505050506040513d601f19601f820116820180604052508101906136be919061429b565b8390613ca4565b9050600061013160009054906101000a90046001600160a01b03166001600160a01b031663bbf44f336040518163ffffffff1660e01b815260040160206040518083038186803b15801561371857600080fd5b505afa15801561372c573d6000803e3d6000fd5b505050506040513d601f19601f82011682018060405250810190613750919061429b565b905060008161376284620f424061486e565b61376c919061475e565b905061013f5481116137b35760405162461bcd60e51b815260206004820152601060248201526f2232b63a309030b13937b0b21d36b4b760811b6044820152606401610a4f565b8061014054116137f85760405162461bcd60e51b815260206004820152601060248201526f088cad8e8c240c2c4e4dec2c874dac2f60831b6044820152606401610a4f565b6101315460405163b2be259160e01b8152600481018590526001600160a01b039091169063b2be259190602401600060405180830381600087803b15801561383f57600080fd5b505af1158015613853573d6000803e3d6000fd5b50505050600089111561391d57610132546001600160a01b03166138b25760405162461bcd60e51b8152602060048201526016602482015275436f6c6c6563746f722061646472657373207a65726f60501b6044820152606401610a4f565b61013154610132546040516340c10f1960e01b81526001600160a01b039182166004820152602481018c90529116906340c10f1990604401600060405180830381600087803b15801561390457600080fd5b505af1158015613918573d6000803e3d6000fd5b505050505b610141546001600160a01b0316156139995761014160009054906101000a90046001600160a01b03166001600160a01b031663f14a74386040518163ffffffff1660e01b8152600401600060405180830381600087803b15801561398057600080fd5b505af1158015613994573d6000803e3d6000fd5b505050505b6040805189815260208101899052908101879052606081018690527f106a59d3805ed5b61e26818a11c688e650c883df2ca2d625f9d9ac6fae9d91799060800160405180910390a15b61013d5461013b546139f4919061488d565b4210613a155761013c5461013b54613a0c9190614746565b61013b556139e2565b7f6654b7187a0560c4c326844142156c2adf52738d0a615487e0e2a5cd9823c2c461013b54604051613a4991815260200190565b60405180910390a15050505050505050505050565b600054610100900460ff16610c3b5760405162461bcd60e51b8152600401610a4f90614694565b600054610100900460ff16613aac5760405162461bcd60e51b8152600401610a4f90614694565b610c3b613d78565b613abc61337c565b60fb805460ff191660011790557f62e78cea01bee320cd4e420270b5ea74000d11b0c9f74754ebdbfc544b05a25861333c3390565b613afb828261118b565b610b1b57613b13816001600160a01b03166014613dab565b613b1e836020613dab565b604051602001613b2f92919061440c565b60408051601f198184030181529082905262461bcd60e51b8252610a4f91600401614481565b6001600160a01b0381163b613bc25760405162461bcd60e51b815260206004820152602d60248201527f455243313936373a206e657720696d706c656d656e746174696f6e206973206e60448201526c1bdd08184818dbdb9d1c9858dd609a1b6064820152608401610a4f565b60008051602061499d83398151915280546001600160a01b0319166001600160a01b0392909216919091179055565b613bfa83613f47565b600082511180613c075750805b15610a2357613c168383613f87565b50505050565b60fb5460ff16610c3b5760405162461bcd60e51b815260206004820152601460248201527314185d5cd8589b194e881b9bdd081c185d5cd95960621b6044820152606401610a4f565b600080613c76633b9aca008461486e565b905082613c87633b9aca008361475e565b146109f85760405162461bcd60e51b8152600401610a4f906145b5565b600081613cf35760405162461bcd60e51b815260206004820152601c60248201527f4572726f72732e4d4154485f4449564953494f4e5f42595f5a45524f000000006044820152606401610a4f565b6000613d0060028461475e565b90506b033b2e3c9fd0803ce8000000613d1b8260001961488d565b613d25919061475e565b841115613d445760405162461bcd60e51b8152600401610a4f906145b5565b8281613d5c6b033b2e3c9fd0803ce80000008761486e565b613d669190614746565b613d70919061475e565b949350505050565b600054610100900460ff16613d9f5760405162461bcd60e51b8152600401610a4f90614694565b60fb805460ff19169055565b60606000613dba83600261486e565b613dc5906002614746565b67ffffffffffffffff811115613ddd57613ddd614951565b6040519080825280601f01601f191660200182016040528015613e07576020820181803683370190505b509050600360fc1b81600081518110613e2257613e2261493b565b60200101906001600160f81b031916908160001a905350600f60fb1b81600181518110613e5157613e5161493b565b60200101906001600160f81b031916908160001a9053506000613e7584600261486e565b613e80906001614746565b90505b6001811115613ef8576f181899199a1a9b1b9c1cb0b131b232b360811b85600f1660108110613eb457613eb461493b565b1a60f81b828281518110613eca57613eca61493b565b60200101906001600160f81b031916908160001a90535060049490941c93613ef1816148f3565b9050613e83565b5083156118795760405162461bcd60e51b815260206004820181905260248201527f537472696e67733a20686578206c656e67746820696e73756666696369656e746044820152606401610a4f565b613f5081613b55565b6040516001600160a01b038216907fbc7cd75a20ee27fd9adebab32041f755214dbc6bffa90cc0225b39da2e5c2d3b90600090a250565b60606001600160a01b0383163b613fef5760405162461bcd60e51b815260206004820152602660248201527f416464726573733a2064656c65676174652063616c6c20746f206e6f6e2d636f6044820152651b9d1c9858dd60d21b6064820152608401610a4f565b600080846001600160a01b03168460405161400a91906143f0565b600060405180830381855af49150503d8060008114614045576040519150601f19603f3d011682016040523d82523d6000602084013e61404a565b606091505b509150915061407282826040518060600160405280602781526020016149bd6027913961407b565b95945050505050565b6060831561408a575081611879565b82511561409a5782518084602001fd5b8160405162461bcd60e51b8152600401610a4f9190614481565b6000602082840312156140c657600080fd5b813561187981614967565b6000602082840312156140e357600080fd5b815161187981614967565b6000806040838503121561410157600080fd5b823561410c81614967565b9150602083013561411c81614967565b809150509250929050565b6000806040838503121561413a57600080fd5b823561414581614967565b9150602083013567ffffffffffffffff8082111561416257600080fd5b818501915085601f83011261417657600080fd5b81358181111561418857614188614951565b604051601f8201601f19908116603f011681019083821181831017156141b0576141b0614951565b816040528281528860208487010111156141c957600080fd5b8260208601602083013760006020848301015280955050505050509250929050565b600080602083850312156141fe57600080fd5b823567ffffffffffffffff8082111561421657600080fd5b818501915085601f83011261422a57600080fd5b81358181111561423957600080fd5b8660208260051b850101111561424e57600080fd5b60209290920196919550909350505050565b60006020828403121561427257600080fd5b8151801515811461187957600080fd5b60006020828403121561429457600080fd5b5035919050565b6000602082840312156142ad57600080fd5b5051919050565b600080604083850312156142c757600080fd5b82359150602083013561411c81614967565b6000602082840312156142eb57600080fd5b81356001600160e01b03198116811461187957600080fd5b60008060006040848603121561431857600080fd5b83359250602084013567ffffffffffffffff8082111561433757600080fd5b818601915086601f83011261434b57600080fd5b81358181111561435a57600080fd5b87602082850101111561436c57600080fd5b6020830194508093505050509250925092565b6000806040838503121561439257600080fd5b50508035926020909101359150565b6000806000606084860312156143b657600080fd5b505081359360208301359350604090920135919050565b6000602082840312156143df57600080fd5b815160ff8116811461187957600080fd5b600082516144028184602087016148c7565b9190910192915050565b7f416363657373436f6e74726f6c3a206163636f756e74200000000000000000008152600083516144448160178501602088016148c7565b7001034b99036b4b9b9b4b733903937b6329607d1b60179184019182015283516144758160288401602088016148c7565b01602801949350505050565b60208152600082518060208401526144a08160408501602087016148c7565b601f01601f19169190910160400192915050565b6020808252602c908201527f46756e6374696f6e206d7573742062652063616c6c6564207468726f7567682060408201526b19195b1959d85d1958d85b1b60a21b606082015260800190565b6020808252602c908201527f46756e6374696f6e206d7573742062652063616c6c6564207468726f7567682060408201526b6163746976652070726f787960a01b606082015260800190565b60a08152600360a08201526262757960e81b60c082015285602082015284604082015260018060a01b038416606082015260e060808201528160e082015260006101008385828501376000838501820152601f909301601f191690910190910195945050505050565b60208082526023908201527f4572726f72732e4d4154485f4d554c5449504c49434154494f4e5f4f564552466040820152624c4f5760e81b606082015260800190565b6020808252601490820152735265737472696374656420746f2061646d696e7360601b604082015260600190565b6020808252601d908201527f5265737472696374656420746f20506f7274666f6c696f204167656e74000000604082015260600190565b60208082526018908201527f5a65726f2061646472657373206e6f7420616c6c6f7765640000000000000000604082015260600190565b6020808252602b908201527f496e697469616c697a61626c653a20636f6e7472616374206973206e6f74206960408201526a6e697469616c697a696e6760a81b606082015260800190565b6020808252601690820152751b985d881b195cdcc81d1a185b88195e1c1958dd195960521b604082015260600190565b6020808252601c908201527f5a65726f2064656e6f6d696e61746f72206e6f7420616c6c6f77656400000000604082015260600190565b6000821982111561475957614759614925565b500190565b60008261477b57634e487b7160e01b600052601260045260246000fd5b500490565b600181815b808511156147bb5781600019048211156147a1576147a1614925565b808516156147ae57918102915b93841c9390800290614785565b509250929050565b600061187960ff8416836000826147dc575060016109f8565b816147e9575060006109f8565b81600181146147ff576002811461480957614825565b60019150506109f8565b60ff84111561481a5761481a614925565b50506001821b6109f8565b5060208310610133831016604e8410600b8410161715614848575081810a6109f8565b6148528383614780565b806000190482111561486657614866614925565b029392505050565b600081600019048311821515161561488857614888614925565b500290565b60008282101561489f5761489f614925565b500390565b600060ff821660ff8416808210156148be576148be614925565b90039392505050565b60005b838110156148e25781810151838201526020016148ca565b83811115613c165750506000910152565b60008161490257614902614925565b506000190190565b600060001982141561491e5761491e614925565b5060010190565b634e487b7160e01b600052601160045260246000fd5b634e487b7160e01b600052603260045260246000fd5b634e487b7160e01b600052604160045260246000fd5b6001600160a01b0381168114610bfc57600080fdfed67ad422505496469a1adf6cdf9e5ee92ac5d33992843c9ecc4b2f6d6cde9137360894a13ba1a3210667c828492db98dca3e2076cc3735a920a3ca505d382bbc416464726573733a206c6f772d6c6576656c2064656c65676174652063616c6c206661696c6564a2646970667358221220c0c619ab1f2de1f3efff0f73b5a76a0c75050fdb5952e20f425804c3affb8dc064736f6c63430008060033",
  "devdoc": {
    "kind": "dev",
    "methods": {
      "constructor": {
        "custom:oz-upgrades-unsafe-allow": "constructor"
      },
      "getRoleAdmin(bytes32)": {
        "details": "Returns the admin role that controls `role`. See {grantRole} and {revokeRole}. To change a role's admin, use {_setRoleAdmin}."
      },
      "grantRole(bytes32,address)": {
        "details": "Grants `role` to `account`. If `account` had not been already granted `role`, emits a {RoleGranted} event. Requirements: - the caller must have ``role``'s admin role. May emit a {RoleGranted} event."
      },
      "hasRole(bytes32,address)": {
        "details": "Returns `true` if `account` has been granted `role`."
      },
      "paused()": {
        "details": "Returns true if the contract is paused, and false otherwise."
      },
      "proxiableUUID()": {
        "details": "Implementation of the ERC1822 {proxiableUUID} function. This returns the storage slot used by the implementation. It is used to validate that the this implementation remains valid after an upgrade. IMPORTANT: A proxy pointing at a proxiable contract should not be considered proxiable itself, because this risks bricking a proxy that upgrades to it, by delegating to itself until out of gas. Thus it is critical that this function revert if invoked through a proxy. This is guaranteed by the `notDelegated` modifier."
      },
      "renounceRole(bytes32,address)": {
        "details": "Revokes `role` from the calling account. Roles are often managed via {grantRole} and {revokeRole}: this function's purpose is to provide a mechanism for accounts to lose their privileges if they are compromised (such as when a trusted device is misplaced). If the calling account had been revoked `role`, emits a {RoleRevoked} event. Requirements: - the caller must be `account`. May emit a {RoleRevoked} event."
      },
      "revokeRole(bytes32,address)": {
        "details": "Revokes `role` from `account`. If `account` had been granted `role`, emits a {RoleRevoked} event. Requirements: - the caller must have ``role``'s admin role. May emit a {RoleRevoked} event."
      },
      "supportsInterface(bytes4)": {
        "details": "See {IERC165-supportsInterface}."
      },
      "upgradeTo(address)": {
        "details": "Upgrade the implementation of the proxy to `newImplementation`. Calls {_authorizeUpgrade}. Emits an {Upgraded} event."
      },
      "upgradeToAndCall(address,bytes)": {
        "details": "Upgrade the implementation of the proxy to `newImplementation`, and subsequently execute the function call encoded in `data`. Calls {_authorizeUpgrade}. Emits an {Upgraded} event."
      }
    },
    "version": 1
  },
  "userdoc": {
    "kind": "user",
    "methods": {},
    "version": 1
  },
  "storageLayout": {
    "storage": [
      {
        "astId": 808,
        "contract": "contracts/HedgeExchanger.sol:HedgeExchanger",
        "label": "_initialized",
        "offset": 0,
        "slot": "0",
        "type": "t_uint8"
      },
      {
        "astId": 811,
        "contract": "contracts/HedgeExchanger.sol:HedgeExchanger",
        "label": "_initializing",
        "offset": 1,
        "slot": "0",
        "type": "t_bool"
      },
      {
        "astId": 1499,
        "contract": "contracts/HedgeExchanger.sol:HedgeExchanger",
        "label": "__gap",
        "offset": 0,
        "slot": "1",
        "type": "t_array(t_uint256)50_storage"
      },
      {
        "astId": 1829,
        "contract": "contracts/HedgeExchanger.sol:HedgeExchanger",
        "label": "__gap",
        "offset": 0,
        "slot": "51",
        "type": "t_array(t_uint256)50_storage"
      },
      {
        "astId": 39,
        "contract": "contracts/HedgeExchanger.sol:HedgeExchanger",
        "label": "_roles",
        "offset": 0,
        "slot": "101",
        "type": "t_mapping(t_bytes32,t_struct(RoleData)34_storage)"
      },
      {
        "astId": 338,
        "contract": "contracts/HedgeExchanger.sol:HedgeExchanger",
        "label": "__gap",
        "offset": 0,
        "slot": "102",
        "type": "t_array(t_uint256)49_storage"
      },
      {
        "astId": 790,
        "contract": "contracts/HedgeExchanger.sol:HedgeExchanger",
        "label": "__gap",
        "offset": 0,
        "slot": "151",
        "type": "t_array(t_uint256)50_storage"
      },
      {
        "astId": 1087,
        "contract": "contracts/HedgeExchanger.sol:HedgeExchanger",
        "label": "__gap",
        "offset": 0,
        "slot": "201",
        "type": "t_array(t_uint256)50_storage"
      },
      {
        "astId": 1109,
        "contract": "contracts/HedgeExchanger.sol:HedgeExchanger",
        "label": "_paused",
        "offset": 0,
        "slot": "251",
        "type": "t_bool"
      },
      {
        "astId": 1214,
        "contract": "contracts/HedgeExchanger.sol:HedgeExchanger",
        "label": "__gap",
        "offset": 0,
        "slot": "252",
        "type": "t_array(t_uint256)49_storage"
      },
      {
        "astId": 3363,
        "contract": "contracts/HedgeExchanger.sol:HedgeExchanger",
        "label": "exchange",
        "offset": 0,
        "slot": "301",
        "type": "t_contract(IExchange)3160"
      },
      {
        "astId": 3366,
        "contract": "contracts/HedgeExchanger.sol:HedgeExchanger",
        "label": "strategy",
        "offset": 0,
        "slot": "302",
        "type": "t_contract(IHedgeStrategy)5047"
      },
      {
        "astId": 3369,
        "contract": "contracts/HedgeExchanger.sol:HedgeExchanger",
        "label": "usdPlus",
        "offset": 0,
        "slot": "303",
        "type": "t_contract(IUsdPlusToken)3318"
      },
      {
        "astId": 3372,
        "contract": "contracts/HedgeExchanger.sol:HedgeExchanger",
        "label": "usdc",
        "offset": 0,
        "slot": "304",
        "type": "t_contract(IERC20)1920"
      },
      {
        "astId": 3375,
        "contract": "contracts/HedgeExchanger.sol:HedgeExchanger",
        "label": "rebase",
        "offset": 0,
        "slot": "305",
        "type": "t_contract(IRebaseToken)5216"
      },
      {
        "astId": 3377,
        "contract": "contracts/HedgeExchanger.sol:HedgeExchanger",
        "label": "collector",
        "offset": 0,
        "slot": "306",
        "type": "t_address"
      },
      {
        "astId": 3379,
        "contract": "contracts/HedgeExchanger.sol:HedgeExchanger",
        "label": "buyFee",
        "offset": 0,
        "slot": "307",
        "type": "t_uint256"
      },
      {
        "astId": 3381,
        "contract": "contracts/HedgeExchanger.sol:HedgeExchanger",
        "label": "buyFeeDenominator",
        "offset": 0,
        "slot": "308",
        "type": "t_uint256"
      },
      {
        "astId": 3383,
        "contract": "contracts/HedgeExchanger.sol:HedgeExchanger",
        "label": "redeemFee",
        "offset": 0,
        "slot": "309",
        "type": "t_uint256"
      },
      {
        "astId": 3385,
        "contract": "contracts/HedgeExchanger.sol:HedgeExchanger",
        "label": "redeemFeeDenominator",
        "offset": 0,
        "slot": "310",
        "type": "t_uint256"
      },
      {
        "astId": 3387,
        "contract": "contracts/HedgeExchanger.sol:HedgeExchanger",
        "label": "tvlFee",
        "offset": 0,
        "slot": "311",
        "type": "t_uint256"
      },
      {
        "astId": 3389,
        "contract": "contracts/HedgeExchanger.sol:HedgeExchanger",
        "label": "tvlFeeDenominator",
        "offset": 0,
        "slot": "312",
        "type": "t_uint256"
      },
      {
        "astId": 3391,
        "contract": "contracts/HedgeExchanger.sol:HedgeExchanger",
        "label": "profitFee",
        "offset": 0,
        "slot": "313",
        "type": "t_uint256"
      },
      {
        "astId": 3393,
        "contract": "contracts/HedgeExchanger.sol:HedgeExchanger",
        "label": "profitFeeDenominator",
        "offset": 0,
        "slot": "314",
        "type": "t_uint256"
      },
      {
        "astId": 3395,
        "contract": "contracts/HedgeExchanger.sol:HedgeExchanger",
        "label": "nextPayoutTime",
        "offset": 0,
        "slot": "315",
        "type": "t_uint256"
      },
      {
        "astId": 3397,
        "contract": "contracts/HedgeExchanger.sol:HedgeExchanger",
        "label": "payoutPeriod",
        "offset": 0,
        "slot": "316",
        "type": "t_uint256"
      },
      {
        "astId": 3399,
        "contract": "contracts/HedgeExchanger.sol:HedgeExchanger",
        "label": "payoutTimeRange",
        "offset": 0,
        "slot": "317",
        "type": "t_uint256"
      },
      {
        "astId": 3401,
        "contract": "contracts/HedgeExchanger.sol:HedgeExchanger",
        "label": "lastBlockNumber",
        "offset": 0,
        "slot": "318",
        "type": "t_uint256"
      },
      {
        "astId": 3403,
        "contract": "contracts/HedgeExchanger.sol:HedgeExchanger",
        "label": "abroadMin",
        "offset": 0,
        "slot": "319",
        "type": "t_uint256"
      },
      {
        "astId": 3405,
        "contract": "contracts/HedgeExchanger.sol:HedgeExchanger",
        "label": "abroadMax",
        "offset": 0,
        "slot": "320",
        "type": "t_uint256"
      },
      {
        "astId": 3408,
        "contract": "contracts/HedgeExchanger.sol:HedgeExchanger",
        "label": "payoutListener",
        "offset": 0,
        "slot": "321",
        "type": "t_contract(IPayoutListener)5053"
      }
    ],
    "types": {
      "t_address": {
        "encoding": "inplace",
        "label": "address",
        "numberOfBytes": "20"
      },
      "t_array(t_uint256)49_storage": {
        "base": "t_uint256",
        "encoding": "inplace",
        "label": "uint256[49]",
        "numberOfBytes": "1568"
      },
      "t_array(t_uint256)50_storage": {
        "base": "t_uint256",
        "encoding": "inplace",
        "label": "uint256[50]",
        "numberOfBytes": "1600"
      },
      "t_bool": {
        "encoding": "inplace",
        "label": "bool",
        "numberOfBytes": "1"
      },
      "t_bytes32": {
        "encoding": "inplace",
        "label": "bytes32",
        "numberOfBytes": "32"
      },
      "t_contract(IERC20)1920": {
        "encoding": "inplace",
        "label": "contract IERC20",
        "numberOfBytes": "20"
      },
      "t_contract(IExchange)3160": {
        "encoding": "inplace",
        "label": "contract IExchange",
        "numberOfBytes": "20"
      },
      "t_contract(IHedgeStrategy)5047": {
        "encoding": "inplace",
        "label": "contract IHedgeStrategy",
        "numberOfBytes": "20"
      },
      "t_contract(IPayoutListener)5053": {
        "encoding": "inplace",
        "label": "contract IPayoutListener",
        "numberOfBytes": "20"
      },
      "t_contract(IRebaseToken)5216": {
        "encoding": "inplace",
        "label": "contract IRebaseToken",
        "numberOfBytes": "20"
      },
      "t_contract(IUsdPlusToken)3318": {
        "encoding": "inplace",
        "label": "contract IUsdPlusToken",
        "numberOfBytes": "20"
      },
      "t_mapping(t_address,t_bool)": {
        "encoding": "mapping",
        "key": "t_address",
        "label": "mapping(address => bool)",
        "numberOfBytes": "32",
        "value": "t_bool"
      },
      "t_mapping(t_bytes32,t_struct(RoleData)34_storage)": {
        "encoding": "mapping",
        "key": "t_bytes32",
        "label": "mapping(bytes32 => struct AccessControlUpgradeable.RoleData)",
        "numberOfBytes": "32",
        "value": "t_struct(RoleData)34_storage"
      },
      "t_struct(RoleData)34_storage": {
        "encoding": "inplace",
        "label": "struct AccessControlUpgradeable.RoleData",
        "members": [
          {
            "astId": 31,
            "contract": "contracts/HedgeExchanger.sol:HedgeExchanger",
            "label": "members",
            "offset": 0,
            "slot": "0",
            "type": "t_mapping(t_address,t_bool)"
          },
          {
            "astId": 33,
            "contract": "contracts/HedgeExchanger.sol:HedgeExchanger",
            "label": "adminRole",
            "offset": 0,
            "slot": "1",
            "type": "t_bytes32"
          }
        ],
        "numberOfBytes": "64"
      },
      "t_uint256": {
        "encoding": "inplace",
        "label": "uint256",
        "numberOfBytes": "32"
      },
      "t_uint8": {
        "encoding": "inplace",
        "label": "uint8",
        "numberOfBytes": "1"
      }
    }
  }
}